:1000000000308A00782800004236F532F4376F3A23
:100010006810E9392029E530E43C0D050000CC22C8
:100020004410F43A72376532A02746230D050001CB
:10003000CC224410F43A72376532A027CE060A006B
:100040000B08A2008B13831603178C170C140000E7
:10005000000083120313A21B8B1703170C087F39B0
:10006000031976280313A20003170D080313A30036
:1000700003170F080313A40022080C1E3D28990043
:10008000230803178D000313240803178F0003139D
:100090000B08A5008B13831603178C170C14000094
:1000A000000083120313A51B8B1703170C0D0E0DF5
:1000B0007F39031976280313A20003170D080313D1
:1000C000A30003170F080313A40022080C1E6628C0
:1000D0009900230803178D000313240803178F00CA
:1000E0008D0A03198F0A031320280317031308002E
:1000F00003081F398300831603178715083003137D
:10010000990002309A00A63098009030831298002F
:10011000831603170908C039890003131F129F12A1
:100120000030031788008312870188018901831337
:1001300083160908C039890003131F129F1200306B
:1001400003178800831203131F10043003178D0058
:1001500000308F00031320208C1ED1288C1EAE2867
:100160001A08A1002108303C031DC228831608107C
:10017000831208100F3003178D0000308F00031317
:100180002020D1282108313C031DD12883160810D6
:1001900083120814183003178D0000308F000313EA
:0601A0002020AC286300E2
:04400E00F12CFF3F53
:00000001FF
;PIC16F887
;CRC=E418  CREATED="28-Ara-23 21:11"
