:1000000000308A008E2800004236F532F4376F3A0D
:100010006810E9392029E530E43C0D050000CC22C8
:100020004410F43A72376532A02746230D050001CB
:10003000CC224410F43A72376532A027CE060A006B
:100040002330840083130008031933280630F80096
:10005000F701F70B2928F80B28287B30F700F70B5E
:100060002F28800B26288A110A12C0280B08A2000C
:100070008B13831603178C170C14000000008312D7
:100080000313A21B8B1703170C087F3903198C2845
:100090000313A20003170D080313A30003170F088F
:1000A0000313A40022080C1E5328990023080317E9
:1000B0008D000313240803178F0003130B08A500FA
:1000C0008B13831603178C170C1400000000831287
:1000D0000313A51B8B1703170C0D0E0D7F39031986
:1000E0008C280313A20003170D080313A3000317A2
:1000F0000F080313A40022080C1E7C289900230873
:1001000003178D000313240803178F008D0A0319AA
:100110008F0A0313362803170313080003081F3937
:1001200083008316031787150830031399000230E4
:100130009A00A63098009030831298008316031717
:100140000908C039890003131F129F1200300317DA
:1001500088008312870188018901831383160908A7
:10016000C039890003131F129F1200300317880043
:10017000831203131F100430A200FA30A3002028BA
:10018000A20BBD28043003178D0000308F0003132D
:1001900036208C1EEE288C1ECB281A08A1002108C0
:1001A000303C031DDF2883160810831208100F301F
:1001B00003178D0000308F0003133620EE2821082E
:1001C000313C031DEE2883160810831208141830E2
:1001D00003178D0000308F0003133620C9286300F9
:04400E00F12CFF3F53
:00000001FF
;PIC16F887
;CRC=E9AC  CREATED="28-Ara-23 21:35"
